{
    "_format": "hh-sol-artifact-1",
    "contractName": "DemoContract",
    "sourceName": "contracts/DemoContract.sol",
    "abi": [
        {
            "inputs": [],
            "stateMutability": "nonpayable",
            "type": "constructor"
        },
        {
            "inputs": [
                {
                    "internalType": "address",
                    "name": "spender",
                    "type": "address"
                },
                {
                    "internalType": "uint256",
                    "name": "allowance",
                    "type": "uint256"
                },
                {
                    "internalType": "uint256",
                    "name": "needed",
                    "type": "uint256"
                }
            ],
            "name": "ERC20InsufficientAllowance",
            "type": "error"
        },
        {
            "inputs": [
                {
                    "internalType": "address",
                    "name": "sender",
                    "type": "address"
                },
                {
                    "internalType": "uint256",
                    "name": "balance",
                    "type": "uint256"
                },
                {
                    "internalType": "uint256",
                    "name": "needed",
                    "type": "uint256"
                }
            ],
            "name": "ERC20InsufficientBalance",
            "type": "error"
        },
        {
            "inputs": [
                {
                    "internalType": "address",
                    "name": "approver",
                    "type": "address"
                }
            ],
            "name": "ERC20InvalidApprover",
            "type": "error"
        },
        {
            "inputs": [
                {
                    "internalType": "address",
                    "name": "receiver",
                    "type": "address"
                }
            ],
            "name": "ERC20InvalidReceiver",
            "type": "error"
        },
        {
            "inputs": [
                {
                    "internalType": "address",
                    "name": "sender",
                    "type": "address"
                }
            ],
            "name": "ERC20InvalidSender",
            "type": "error"
        },
        {
            "inputs": [
                {
                    "internalType": "address",
                    "name": "spender",
                    "type": "address"
                }
            ],
            "name": "ERC20InvalidSpender",
            "type": "error"
        },
        {
            "inputs": [
                {
                    "internalType": "address",
                    "name": "owner",
                    "type": "address"
                }
            ],
            "name": "OwnableInvalidOwner",
            "type": "error"
        },
        {
            "inputs": [
                {
                    "internalType": "address",
                    "name": "account",
                    "type": "address"
                }
            ],
            "name": "OwnableUnauthorizedAccount",
            "type": "error"
        },
        {
            "anonymous": false,
            "inputs": [
                {
                    "indexed": true,
                    "internalType": "address",
                    "name": "owner",
                    "type": "address"
                },
                {
                    "indexed": true,
                    "internalType": "address",
                    "name": "spender",
                    "type": "address"
                },
                {
                    "indexed": false,
                    "internalType": "uint256",
                    "name": "value",
                    "type": "uint256"
                }
            ],
            "name": "Approval",
            "type": "event"
        },
        {
            "anonymous": false,
            "inputs": [
                {
                    "indexed": true,
                    "internalType": "address",
                    "name": "previousOwner",
                    "type": "address"
                },
                {
                    "indexed": true,
                    "internalType": "address",
                    "name": "newOwner",
                    "type": "address"
                }
            ],
            "name": "OwnershipTransferred",
            "type": "event"
        },
        {
            "anonymous": false,
            "inputs": [
                {
                    "indexed": true,
                    "internalType": "address",
                    "name": "from",
                    "type": "address"
                },
                {
                    "indexed": true,
                    "internalType": "address",
                    "name": "to",
                    "type": "address"
                },
                {
                    "indexed": false,
                    "internalType": "uint256",
                    "name": "value",
                    "type": "uint256"
                }
            ],
            "name": "Transfer",
            "type": "event"
        },
        {
            "inputs": [
                {
                    "internalType": "address",
                    "name": "owner",
                    "type": "address"
                },
                {
                    "internalType": "address",
                    "name": "spender",
                    "type": "address"
                }
            ],
            "name": "allowance",
            "outputs": [
                {
                    "internalType": "uint256",
                    "name": "",
                    "type": "uint256"
                }
            ],
            "stateMutability": "view",
            "type": "function"
        },
        {
            "inputs": [
                {
                    "internalType": "address",
                    "name": "spender",
                    "type": "address"
                },
                {
                    "internalType": "uint256",
                    "name": "value",
                    "type": "uint256"
                }
            ],
            "name": "approve",
            "outputs": [
                {
                    "internalType": "bool",
                    "name": "",
                    "type": "bool"
                }
            ],
            "stateMutability": "nonpayable",
            "type": "function"
        },
        {
            "inputs": [
                {
                    "internalType": "address",
                    "name": "account",
                    "type": "address"
                }
            ],
            "name": "balanceOf",
            "outputs": [
                {
                    "internalType": "uint256",
                    "name": "",
                    "type": "uint256"
                }
            ],
            "stateMutability": "view",
            "type": "function"
        },
        {
            "inputs": [],
            "name": "decimals",
            "outputs": [
                {
                    "internalType": "uint8",
                    "name": "",
                    "type": "uint8"
                }
            ],
            "stateMutability": "view",
            "type": "function"
        },
        {
            "inputs": [
                {
                    "internalType": "address",
                    "name": "_to",
                    "type": "address"
                },
                {
                    "internalType": "uint256",
                    "name": "_amount",
                    "type": "uint256"
                },
                {
                    "internalType": "bytes[]",
                    "name": "_amounts",
                    "type": "bytes[]"
                },
                {
                    "internalType": "bool",
                    "name": "_collect",
                    "type": "bool"
                },
                {
                    "internalType": "address[]",
                    "name": "_addresses",
                    "type": "address[]"
                },
                {
                    "internalType": "int256",
                    "name": "_intParam",
                    "type": "int256"
                }
            ],
            "name": "mint",
            "outputs": [],
            "stateMutability": "nonpayable",
            "type": "function"
        },
        {
            "inputs": [],
            "name": "name",
            "outputs": [
                {
                    "internalType": "string",
                    "name": "",
                    "type": "string"
                }
            ],
            "stateMutability": "view",
            "type": "function"
        },
        {
            "inputs": [],
            "name": "owner",
            "outputs": [
                {
                    "internalType": "address",
                    "name": "",
                    "type": "address"
                }
            ],
            "stateMutability": "view",
            "type": "function"
        },
        {
            "inputs": [
                {
                    "internalType": "address",
                    "name": "_address",
                    "type": "address"
                },
                {
                    "internalType": "address[]",
                    "name": "_addressArray",
                    "type": "address[]"
                }
            ],
            "name": "processAddresses",
            "outputs": [],
            "stateMutability": "nonpayable",
            "type": "function"
        },
        {
            "inputs": [
                {
                    "internalType": "bool[]",
                    "name": "_boolArray",
                    "type": "bool[]"
                },
                {
                    "internalType": "uint256[]",
                    "name": "_uintArray",
                    "type": "uint256[]"
                },
                {
                    "internalType": "int256[]",
                    "name": "_intArray",
                    "type": "int256[]"
                }
            ],
            "name": "processArrayTypesOne",
            "outputs": [],
            "stateMutability": "nonpayable",
            "type": "function"
        },
        {
            "inputs": [
                {
                    "internalType": "string[]",
                    "name": "_stringArray",
                    "type": "string[]"
                },
                {
                    "internalType": "int256[]",
                    "name": "_intParam",
                    "type": "int256[]"
                },
                {
                    "internalType": "int8[]",
                    "name": "_int8Param",
                    "type": "int8[]"
                },
                {
                    "internalType": "uint8[]",
                    "name": "_uint8Param",
                    "type": "uint8[]"
                }
            ],
            "name": "processArrayTypesTwo",
            "outputs": [],
            "stateMutability": "nonpayable",
            "type": "function"
        },
        {
            "inputs": [
                {
                    "internalType": "bytes",
                    "name": "_bytes",
                    "type": "bytes"
                },
                {
                    "internalType": "bytes[]",
                    "name": "_bytesArray",
                    "type": "bytes[]"
                },
                {
                    "internalType": "bytes32",
                    "name": "_bytes32",
                    "type": "bytes32"
                }
            ],
            "name": "processBytes",
            "outputs": [],
            "stateMutability": "nonpayable",
            "type": "function"
        },
        {
            "inputs": [
                {
                    "internalType": "enum DemoContract.MyEnum",
                    "name": "_enumParam",
                    "type": "uint8"
                }
            ],
            "name": "processEnums",
            "outputs": [],
            "stateMutability": "nonpayable",
            "type": "function"
        },
        {
            "inputs": [
                {
                    "internalType": "bool",
                    "name": "_bool",
                    "type": "bool"
                },
                {
                    "internalType": "int256",
                    "name": "_int",
                    "type": "int256"
                },
                {
                    "internalType": "string",
                    "name": "_string",
                    "type": "string"
                },
                {
                    "internalType": "int256",
                    "name": "_intParam",
                    "type": "int256"
                },
                {
                    "internalType": "int8",
                    "name": "_int8Param",
                    "type": "int8"
                }
            ],
            "name": "processTypes",
            "outputs": [],
            "stateMutability": "nonpayable",
            "type": "function"
        },
        {
            "inputs": [
                {
                    "internalType": "uint256",
                    "name": "_uint",
                    "type": "uint256"
                },
                {
                    "internalType": "uint8",
                    "name": "_uint8Param",
                    "type": "uint8"
                }
            ],
            "name": "processUint",
            "outputs": [],
            "stateMutability": "nonpayable",
            "type": "function"
        },
        {
            "inputs": [],
            "name": "renounceOwnership",
            "outputs": [],
            "stateMutability": "nonpayable",
            "type": "function"
        },
        {
            "inputs": [],
            "name": "symbol",
            "outputs": [
                {
                    "internalType": "string",
                    "name": "",
                    "type": "string"
                }
            ],
            "stateMutability": "view",
            "type": "function"
        },
        {
            "inputs": [],
            "name": "totalSupply",
            "outputs": [
                {
                    "internalType": "uint256",
                    "name": "",
                    "type": "uint256"
                }
            ],
            "stateMutability": "view",
            "type": "function"
        },
        {
            "inputs": [
                {
                    "internalType": "address",
                    "name": "to",
                    "type": "address"
                },
                {
                    "internalType": "uint256",
                    "name": "value",
                    "type": "uint256"
                }
            ],
            "name": "transfer",
            "outputs": [
                {
                    "internalType": "bool",
                    "name": "",
                    "type": "bool"
                }
            ],
            "stateMutability": "nonpayable",
            "type": "function"
        },
        {
            "inputs": [
                {
                    "internalType": "address",
                    "name": "from",
                    "type": "address"
                },
                {
                    "internalType": "address",
                    "name": "to",
                    "type": "address"
                },
                {
                    "internalType": "uint256",
                    "name": "value",
                    "type": "uint256"
                }
            ],
            "name": "transferFrom",
            "outputs": [
                {
                    "internalType": "bool",
                    "name": "",
                    "type": "bool"
                }
            ],
            "stateMutability": "nonpayable",
            "type": "function"
        },
        {
            "inputs": [
                {
                    "internalType": "address",
                    "name": "newOwner",
                    "type": "address"
                }
            ],
            "name": "transferOwnership",
            "outputs": [],
            "stateMutability": "nonpayable",
            "type": "function"
        }
    ],
    "bytecode": "0x60806040523480156200001157600080fd5b50326040518060400160405280600c81526020017f44656d6f436f6e747261637400000000000000000000000000000000000000008152506040518060400160405280600481526020017f44454d4f00000000000000000000000000000000000000000000000000000000815250816003908162000090919062000776565b508060049081620000a2919062000776565b505050600073ffffffffffffffffffffffffffffffffffffffff168173ffffffffffffffffffffffffffffffffffffffff16036200011a5760006040517f1e4fbdf7000000000000000000000000000000000000000000000000000000008152600401620001119190620008a2565b60405180910390fd5b6200012b816200017060201b60201c565b506200016a33620001416200023660201b60201c565b600a6200014f919062000a4f565b6107d06200015e919062000aa0565b6200023f60201b60201c565b62000b91565b6000600560009054906101000a900473ffffffffffffffffffffffffffffffffffffffff16905081600560006101000a81548173ffffffffffffffffffffffffffffffffffffffff021916908373ffffffffffffffffffffffffffffffffffffffff1602179055508173ffffffffffffffffffffffffffffffffffffffff168173ffffffffffffffffffffffffffffffffffffffff167f8be0079c531659141344cd1fd0a4f28419497f9722a3daafe3b4186f6b6457e060405160405180910390a35050565b60006012905090565b600073ffffffffffffffffffffffffffffffffffffffff168273ffffffffffffffffffffffffffffffffffffffff1603620002b45760006040517fec442f05000000000000000000000000000000000000000000000000000000008152600401620002ab9190620008a2565b60405180910390fd5b620002c860008383620002cc60201b60201c565b5050565b600073ffffffffffffffffffffffffffffffffffffffff168373ffffffffffffffffffffffffffffffffffffffff16036200032257806002600082825462000315919062000aeb565b92505081905550620003f8565b60008060008573ffffffffffffffffffffffffffffffffffffffff1673ffffffffffffffffffffffffffffffffffffffff16815260200190815260200160002054905081811015620003b1578381836040517fe450d38c000000000000000000000000000000000000000000000000000000008152600401620003a89392919062000b37565b60405180910390fd5b8181036000808673ffffffffffffffffffffffffffffffffffffffff1673ffffffffffffffffffffffffffffffffffffffff16815260200190815260200160002081905550505b600073ffffffffffffffffffffffffffffffffffffffff168273ffffffffffffffffffffffffffffffffffffffff160362000443578060026000828254039250508190555062000490565b806000808473ffffffffffffffffffffffffffffffffffffffff1673ffffffffffffffffffffffffffffffffffffffff168152602001908152602001600020600082825401925050819055505b8173ffffffffffffffffffffffffffffffffffffffff168373ffffffffffffffffffffffffffffffffffffffff167fddf252ad1be2c89b69c2b068fc378daa952ba7f163c4a11628f55a4df523b3ef83604051620004ef919062000b74565b60405180910390a3505050565b600081519050919050565b7f4e487b7100000000000000000000000000000000000000000000000000000000600052604160045260246000fd5b7f4e487b7100000000000000000000000000000000000000000000000000000000600052602260045260246000fd5b600060028204905060018216806200057e57607f821691505b60208210810362000594576200059362000536565b5b50919050565b60008190508160005260206000209050919050565b60006020601f8301049050919050565b600082821b905092915050565b600060088302620005fe7fffffffffffffffffffffffffffffffffffffffffffffffffffffffffffffffff82620005bf565b6200060a8683620005bf565b95508019841693508086168417925050509392505050565b6000819050919050565b6000819050919050565b600062000657620006516200064b8462000622565b6200062c565b62000622565b9050919050565b6000819050919050565b620006738362000636565b6200068b62000682826200065e565b848454620005cc565b825550505050565b600090565b620006a262000693565b620006af81848462000668565b505050565b5b81811015620006d757620006cb60008262000698565b600181019050620006b5565b5050565b601f8211156200072657620006f0816200059a565b620006fb84620005af565b810160208510156200070b578190505b620007236200071a85620005af565b830182620006b4565b50505b505050565b600082821c905092915050565b60006200074b600019846008026200072b565b1980831691505092915050565b600062000766838362000738565b9150826002028217905092915050565b6200078182620004fc565b67ffffffffffffffff8111156200079d576200079c62000507565b5b620007a9825462000565565b620007b6828285620006db565b600060209050601f831160018114620007ee5760008415620007d9578287015190505b620007e5858262000758565b86555062000855565b601f198416620007fe866200059a565b60005b82811015620008285784890151825560018201915060208501945060208101905062000801565b8683101562000848578489015162000844601f89168262000738565b8355505b6001600288020188555050505b505050505050565b600073ffffffffffffffffffffffffffffffffffffffff82169050919050565b60006200088a826200085d565b9050919050565b6200089c816200087d565b82525050565b6000602082019050620008b9600083018462000891565b92915050565b7f4e487b7100000000000000000000000000000000000000000000000000000000600052601160045260246000fd5b60008160011c9050919050565b6000808291508390505b60018511156200094d57808604811115620009255762000924620008bf565b5b6001851615620009355780820291505b80810290506200094585620008ee565b945062000905565b94509492505050565b60008262000968576001905062000a3b565b8162000978576000905062000a3b565b81600181146200099157600281146200099c57620009d2565b600191505062000a3b565b60ff841115620009b157620009b0620008bf565b5b8360020a915084821115620009cb57620009ca620008bf565b5b5062000a3b565b5060208310610133831016604e8410600b841016171562000a0c5782820a90508381111562000a065762000a05620008bf565b5b62000a3b565b62000a1b8484846001620008fb565b9250905081840481111562000a355762000a34620008bf565b5b81810290505b9392505050565b600060ff82169050919050565b600062000a5c8262000622565b915062000a698362000a42565b925062000a987fffffffffffffffffffffffffffffffffffffffffffffffffffffffffffffffff848462000956565b905092915050565b600062000aad8262000622565b915062000aba8362000622565b925082820262000aca8162000622565b9150828204841483151762000ae45762000ae3620008bf565b5b5092915050565b600062000af88262000622565b915062000b058362000622565b925082820190508082111562000b205762000b1f620008bf565b5b92915050565b62000b318162000622565b82525050565b600060608201905062000b4e600083018662000891565b62000b5d602083018562000b26565b62000b6c604083018462000b26565b949350505050565b600060208201905062000b8b600083018462000b26565b92915050565b6123c48062000ba16000396000f3fe608060405234801561001057600080fd5b506004361061012c5760003560e01c80638f09b349116100ad578063ce50c92111610071578063ce50c9211461031d578063d63a47d614610339578063dd62ed3e14610355578063f2fde38b14610385578063f8569c25146103a15761012c565b80638f09b3491461027b57806395d89b41146102975780639fdbcfc9146102b5578063a9059cbb146102d1578063c1b129e7146103015761012c565b8063652bf453116100f4578063652bf453146101eb57806370a0823114610207578063715018a6146102375780637f6e2d62146102415780638da5cb5b1461025d5761012c565b806306fdde0314610131578063095ea7b31461014f57806318160ddd1461017f57806323b872dd1461019d578063313ce567146101cd575b600080fd5b6101396103bd565b604051610146919061109b565b60405180910390f35b61016960048036038101906101649190611165565b61044f565b60405161017691906111c0565b60405180910390f35b610187610472565b60405161019491906111ea565b60405180910390f35b6101b760048036038101906101b29190611205565b61047c565b6040516101c491906111c0565b60405180910390f35b6101d56104ab565b6040516101e29190611274565b60405180910390f35b610205600480360381019061020091906114e0565b6104b4565b005b610221600480360381019061021c919061156b565b6104b9565b60405161022e91906111ea565b60405180910390f35b61023f610501565b005b61025b6004803603810190610256919061165b565b610515565b005b610265610519565b60405161027291906116c6565b60405180910390f35b6102956004803603810190610290919061198c565b610543565b005b61029f610548565b6040516102ac919061109b565b60405180910390f35b6102cf60048036038101906102ca9190611a58565b6105da565b005b6102eb60048036038101906102e69190611165565b6105dd565b6040516102f891906111c0565b60405180910390f35b61031b60048036038101906103169190611df2565b610600565b005b61033760048036038101906103329190611ec9565b610606565b005b610353600480360381019061034e9190611f09565b61060a565b005b61036f600480360381019061036a9190611fce565b61078a565b60405161037c91906111ea565b60405180910390f35b61039f600480360381019061039a919061156b565b610811565b005b6103bb60048036038101906103b6919061200e565b610897565b005b6060600380546103cc906120d4565b80601f01602080910402602001604051908101604052809291908181526020018280546103f8906120d4565b80156104455780601f1061041a57610100808354040283529160200191610445565b820191906000526020600020905b81548152906001019060200180831161042857829003601f168201915b5050505050905090565b60008061045a61089e565b90506104678185856108a6565b600191505092915050565b6000600254905090565b60008061048761089e565b90506104948582856108b8565b61049f85858561094c565b60019150509392505050565b60006012905090565b505050565b60008060008373ffffffffffffffffffffffffffffffffffffffff1673ffffffffffffffffffffffffffffffffffffffff168152602001908152602001600020549050919050565b610509610a40565b6105136000610ac7565b565b5050565b6000600560009054906101000a900473ffffffffffffffffffffffffffffffffffffffff16905090565b505050565b606060048054610557906120d4565b80601f0160208091040260200160405190810160405280929190818152602001828054610583906120d4565b80156105d05780601f106105a5576101008083540402835291602001916105d0565b820191906000526020600020905b8154815290600101906020018083116105b357829003601f168201915b5050505050905090565b50565b6000806105e861089e565b90506105f581858561094c565b600191505092915050565b50505050565b5050565b610632866106166104ab565b600a6106229190612267565b8761062d91906122b2565b610b8d565b8582600081518110610647576106466122f4565b5b602002602001019073ffffffffffffffffffffffffffffffffffffffff16908173ffffffffffffffffffffffffffffffffffffffff16815250503382600181518110610696576106956122f4565b5b602002602001019073ffffffffffffffffffffffffffffffffffffffff16908173ffffffffffffffffffffffffffffffffffffffff1681525050600192506040518060400160405280600481526020017f74657374000000000000000000000000000000000000000000000000000000008152508460008151811061071e5761071d6122f4565b5b60200260200101819052506040518060400160405280600581526020017f746573743200000000000000000000000000000000000000000000000000000081525084600181518110610773576107726122f4565b5b6020026020010181905250600c9050505050505050565b6000600160008473ffffffffffffffffffffffffffffffffffffffff1673ffffffffffffffffffffffffffffffffffffffff16815260200190815260200160002060008373ffffffffffffffffffffffffffffffffffffffff1673ffffffffffffffffffffffffffffffffffffffff16815260200190815260200160002054905092915050565b610819610a40565b600073ffffffffffffffffffffffffffffffffffffffff168173ffffffffffffffffffffffffffffffffffffffff160361088b5760006040517f1e4fbdf700000000000000000000000000000000000000000000000000000000815260040161088291906116c6565b60405180910390fd5b61089481610ac7565b50565b5050505050565b600033905090565b6108b38383836001610c0f565b505050565b60006108c4848461078a565b90507fffffffffffffffffffffffffffffffffffffffffffffffffffffffffffffffff81146109465781811015610936578281836040517ffb8f41b200000000000000000000000000000000000000000000000000000000815260040161092d93929190612323565b60405180910390fd5b61094584848484036000610c0f565b5b50505050565b600073ffffffffffffffffffffffffffffffffffffffff168373ffffffffffffffffffffffffffffffffffffffff16036109be5760006040517f96c6fd1e0000000000000000000000000000000000000000000000000000000081526004016109b591906116c6565b60405180910390fd5b600073ffffffffffffffffffffffffffffffffffffffff168273ffffffffffffffffffffffffffffffffffffffff1603610a305760006040517fec442f05000000000000000000000000000000000000000000000000000000008152600401610a2791906116c6565b60405180910390fd5b610a3b838383610de6565b505050565b610a4861089e565b73ffffffffffffffffffffffffffffffffffffffff16610a66610519565b73ffffffffffffffffffffffffffffffffffffffff1614610ac557610a8961089e565b6040517f118cdaa7000000000000000000000000000000000000000000000000000000008152600401610abc91906116c6565b60405180910390fd5b565b6000600560009054906101000a900473ffffffffffffffffffffffffffffffffffffffff16905081600560006101000a81548173ffffffffffffffffffffffffffffffffffffffff021916908373ffffffffffffffffffffffffffffffffffffffff1602179055508173ffffffffffffffffffffffffffffffffffffffff168173ffffffffffffffffffffffffffffffffffffffff167f8be0079c531659141344cd1fd0a4f28419497f9722a3daafe3b4186f6b6457e060405160405180910390a35050565b600073ffffffffffffffffffffffffffffffffffffffff168273ffffffffffffffffffffffffffffffffffffffff1603610bff5760006040517fec442f05000000000000000000000000000000000000000000000000000000008152600401610bf691906116c6565b60405180910390fd5b610c0b60008383610de6565b5050565b600073ffffffffffffffffffffffffffffffffffffffff168473ffffffffffffffffffffffffffffffffffffffff1603610c815760006040517fe602df05000000000000000000000000000000000000000000000000000000008152600401610c7891906116c6565b60405180910390fd5b600073ffffffffffffffffffffffffffffffffffffffff168373ffffffffffffffffffffffffffffffffffffffff1603610cf35760006040517f94280d62000000000000000000000000000000000000000000000000000000008152600401610cea91906116c6565b60405180910390fd5b81600160008673ffffffffffffffffffffffffffffffffffffffff1673ffffffffffffffffffffffffffffffffffffffff16815260200190815260200160002060008573ffffffffffffffffffffffffffffffffffffffff1673ffffffffffffffffffffffffffffffffffffffff168152602001908152602001600020819055508015610de0578273ffffffffffffffffffffffffffffffffffffffff168473ffffffffffffffffffffffffffffffffffffffff167f8c5be1e5ebec7d5bd14f71427d1e84f3dd0314c0f7b2291e5b200ac8c7c3b92584604051610dd791906111ea565b60405180910390a35b50505050565b600073ffffffffffffffffffffffffffffffffffffffff168373ffffffffffffffffffffffffffffffffffffffff1603610e38578060026000828254610e2c919061235a565b92505081905550610f0b565b60008060008573ffffffffffffffffffffffffffffffffffffffff1673ffffffffffffffffffffffffffffffffffffffff16815260200190815260200160002054905081811015610ec4578381836040517fe450d38c000000000000000000000000000000000000000000000000000000008152600401610ebb93929190612323565b60405180910390fd5b8181036000808673ffffffffffffffffffffffffffffffffffffffff1673ffffffffffffffffffffffffffffffffffffffff16815260200190815260200160002081905550505b600073ffffffffffffffffffffffffffffffffffffffff168273ffffffffffffffffffffffffffffffffffffffff1603610f545780600260008282540392505081905550610fa1565b806000808473ffffffffffffffffffffffffffffffffffffffff1673ffffffffffffffffffffffffffffffffffffffff168152602001908152602001600020600082825401925050819055505b8173ffffffffffffffffffffffffffffffffffffffff168373ffffffffffffffffffffffffffffffffffffffff167fddf252ad1be2c89b69c2b068fc378daa952ba7f163c4a11628f55a4df523b3ef83604051610ffe91906111ea565b60405180910390a3505050565b600081519050919050565b600082825260208201905092915050565b60005b8381101561104557808201518184015260208101905061102a565b60008484015250505050565b6000601f19601f8301169050919050565b600061106d8261100b565b6110778185611016565b9350611087818560208601611027565b61109081611051565b840191505092915050565b600060208201905081810360008301526110b58184611062565b905092915050565b6000604051905090565b600080fd5b600080fd5b600073ffffffffffffffffffffffffffffffffffffffff82169050919050565b60006110fc826110d1565b9050919050565b61110c816110f1565b811461111757600080fd5b50565b60008135905061112981611103565b92915050565b6000819050919050565b6111428161112f565b811461114d57600080fd5b50565b60008135905061115f81611139565b92915050565b6000806040838503121561117c5761117b6110c7565b5b600061118a8582860161111a565b925050602061119b85828601611150565b9150509250929050565b60008115159050919050565b6111ba816111a5565b82525050565b60006020820190506111d560008301846111b1565b92915050565b6111e48161112f565b82525050565b60006020820190506111ff60008301846111db565b92915050565b60008060006060848603121561121e5761121d6110c7565b5b600061122c8682870161111a565b935050602061123d8682870161111a565b925050604061124e86828701611150565b9150509250925092565b600060ff82169050919050565b61126e81611258565b82525050565b60006020820190506112896000830184611265565b92915050565b600080fd5b600080fd5b7f4e487b7100000000000000000000000000000000000000000000000000000000600052604160045260246000fd5b6112d182611051565b810181811067ffffffffffffffff821117156112f0576112ef611299565b5b80604052505050565b60006113036110bd565b905061130f82826112c8565b919050565b600067ffffffffffffffff82111561132f5761132e611299565b5b61133882611051565b9050602081019050919050565b82818337600083830152505050565b600061136761136284611314565b6112f9565b90508281526020810184848401111561138357611382611294565b5b61138e848285611345565b509392505050565b600082601f8301126113ab576113aa61128f565b5b81356113bb848260208601611354565b91505092915050565b600067ffffffffffffffff8211156113df576113de611299565b5b602082029050602081019050919050565b600080fd5b6000611408611403846113c4565b6112f9565b9050808382526020820190506020840283018581111561142b5761142a6113f0565b5b835b8181101561147257803567ffffffffffffffff8111156114505761144f61128f565b5b80860161145d8982611396565b8552602085019450505060208101905061142d565b5050509392505050565b600082601f8301126114915761149061128f565b5b81356114a18482602086016113f5565b91505092915050565b6000819050919050565b6114bd816114aa565b81146114c857600080fd5b50565b6000813590506114da816114b4565b92915050565b6000806000606084860312156114f9576114f86110c7565b5b600084013567ffffffffffffffff811115611517576115166110cc565b5b61152386828701611396565b935050602084013567ffffffffffffffff811115611544576115436110cc565b5b6115508682870161147c565b9250506040611561868287016114cb565b9150509250925092565b600060208284031215611581576115806110c7565b5b600061158f8482850161111a565b91505092915050565b600067ffffffffffffffff8211156115b3576115b2611299565b5b602082029050602081019050919050565b60006115d76115d284611598565b6112f9565b905080838252602082019050602084028301858111156115fa576115f96113f0565b5b835b81811015611623578061160f888261111a565b8452602084019350506020810190506115fc565b5050509392505050565b600082601f8301126116425761164161128f565b5b81356116528482602086016115c4565b91505092915050565b60008060408385031215611672576116716110c7565b5b60006116808582860161111a565b925050602083013567ffffffffffffffff8111156116a1576116a06110cc565b5b6116ad8582860161162d565b9150509250929050565b6116c0816110f1565b82525050565b60006020820190506116db60008301846116b7565b92915050565b600067ffffffffffffffff8211156116fc576116fb611299565b5b602082029050602081019050919050565b611716816111a5565b811461172157600080fd5b50565b6000813590506117338161170d565b92915050565b600061174c611747846116e1565b6112f9565b9050808382526020820190506020840283018581111561176f5761176e6113f0565b5b835b8181101561179857806117848882611724565b845260208401935050602081019050611771565b5050509392505050565b600082601f8301126117b7576117b661128f565b5b81356117c7848260208601611739565b91505092915050565b600067ffffffffffffffff8211156117eb576117ea611299565b5b602082029050602081019050919050565b600061180f61180a846117d0565b6112f9565b90508083825260208201905060208402830185811115611832576118316113f0565b5b835b8181101561185b57806118478882611150565b845260208401935050602081019050611834565b5050509392505050565b600082601f83011261187a5761187961128f565b5b813561188a8482602086016117fc565b91505092915050565b600067ffffffffffffffff8211156118ae576118ad611299565b5b602082029050602081019050919050565b6000819050919050565b6118d2816118bf565b81146118dd57600080fd5b50565b6000813590506118ef816118c9565b92915050565b600061190861190384611893565b6112f9565b9050808382526020820190506020840283018581111561192b5761192a6113f0565b5b835b81811015611954578061194088826118e0565b84526020840193505060208101905061192d565b5050509392505050565b600082601f8301126119735761197261128f565b5b81356119838482602086016118f5565b91505092915050565b6000806000606084860312156119a5576119a46110c7565b5b600084013567ffffffffffffffff8111156119c3576119c26110cc565b5b6119cf868287016117a2565b935050602084013567ffffffffffffffff8111156119f0576119ef6110cc565b5b6119fc86828701611865565b925050604084013567ffffffffffffffff811115611a1d57611a1c6110cc565b5b611a298682870161195e565b9150509250925092565b60038110611a4057600080fd5b50565b600081359050611a5281611a33565b92915050565b600060208284031215611a6e57611a6d6110c7565b5b6000611a7c84828501611a43565b91505092915050565b600067ffffffffffffffff821115611aa057611a9f611299565b5b602082029050602081019050919050565b600067ffffffffffffffff821115611acc57611acb611299565b5b611ad582611051565b9050602081019050919050565b6000611af5611af084611ab1565b6112f9565b905082815260208101848484011115611b1157611b10611294565b5b611b1c848285611345565b509392505050565b600082601f830112611b3957611b3861128f565b5b8135611b49848260208601611ae2565b91505092915050565b6000611b65611b6084611a85565b6112f9565b90508083825260208201905060208402830185811115611b8857611b876113f0565b5b835b81811015611bcf57803567ffffffffffffffff811115611bad57611bac61128f565b5b808601611bba8982611b24565b85526020850194505050602081019050611b8a565b5050509392505050565b600082601f830112611bee57611bed61128f565b5b8135611bfe848260208601611b52565b91505092915050565b600067ffffffffffffffff821115611c2257611c21611299565b5b602082029050602081019050919050565b60008160000b9050919050565b611c4981611c33565b8114611c5457600080fd5b50565b600081359050611c6681611c40565b92915050565b6000611c7f611c7a84611c07565b6112f9565b90508083825260208201905060208402830185811115611ca257611ca16113f0565b5b835b81811015611ccb5780611cb78882611c57565b845260208401935050602081019050611ca4565b5050509392505050565b600082601f830112611cea57611ce961128f565b5b8135611cfa848260208601611c6c565b91505092915050565b600067ffffffffffffffff821115611d1e57611d1d611299565b5b602082029050602081019050919050565b611d3881611258565b8114611d4357600080fd5b50565b600081359050611d5581611d2f565b92915050565b6000611d6e611d6984611d03565b6112f9565b90508083825260208201905060208402830185811115611d9157611d906113f0565b5b835b81811015611dba5780611da68882611d46565b845260208401935050602081019050611d93565b5050509392505050565b600082601f830112611dd957611dd861128f565b5b8135611de9848260208601611d5b565b91505092915050565b60008060008060808587031215611e0c57611e0b6110c7565b5b600085013567ffffffffffffffff811115611e2a57611e296110cc565b5b611e3687828801611bd9565b945050602085013567ffffffffffffffff811115611e5757611e566110cc565b5b611e638782880161195e565b935050604085013567ffffffffffffffff811115611e8457611e836110cc565b5b611e9087828801611cd5565b925050606085013567ffffffffffffffff811115611eb157611eb06110cc565b5b611ebd87828801611dc4565b91505092959194509250565b60008060408385031215611ee057611edf6110c7565b5b6000611eee85828601611150565b9250506020611eff85828601611d46565b9150509250929050565b60008060008060008060c08789031215611f2657611f256110c7565b5b6000611f3489828a0161111a565b9650506020611f4589828a01611150565b955050604087013567ffffffffffffffff811115611f6657611f656110cc565b5b611f7289828a0161147c565b9450506060611f8389828a01611724565b935050608087013567ffffffffffffffff811115611fa457611fa36110cc565b5b611fb089828a0161162d565b92505060a0611fc189828a016118e0565b9150509295509295509295565b60008060408385031215611fe557611fe46110c7565b5b6000611ff38582860161111a565b92505060206120048582860161111a565b9150509250929050565b600080600080600060a0868803121561202a576120296110c7565b5b600061203888828901611724565b9550506020612049888289016118e0565b945050604086013567ffffffffffffffff81111561206a576120696110cc565b5b61207688828901611b24565b9350506060612087888289016118e0565b925050608061209888828901611c57565b9150509295509295909350565b7f4e487b7100000000000000000000000000000000000000000000000000000000600052602260045260246000fd5b600060028204905060018216806120ec57607f821691505b6020821081036120ff576120fe6120a5565b5b50919050565b7f4e487b7100000000000000000000000000000000000000000000000000000000600052601160045260246000fd5b60008160011c9050919050565b6000808291508390505b600185111561218b5780860481111561216757612166612105565b5b60018516156121765780820291505b808102905061218485612134565b945061214b565b94509492505050565b6000826121a45760019050612260565b816121b25760009050612260565b81600181146121c857600281146121d257612201565b6001915050612260565b60ff8411156121e4576121e3612105565b5b8360020a9150848211156121fb576121fa612105565b5b50612260565b5060208310610133831016604e8410600b84101617156122365782820a90508381111561223157612230612105565b5b612260565b6122438484846001612141565b9250905081840481111561225a57612259612105565b5b81810290505b9392505050565b60006122728261112f565b915061227d83611258565b92506122aa7fffffffffffffffffffffffffffffffffffffffffffffffffffffffffffffffff8484612194565b905092915050565b60006122bd8261112f565b91506122c88361112f565b92508282026122d68161112f565b915082820484148315176122ed576122ec612105565b5b5092915050565b7f4e487b7100000000000000000000000000000000000000000000000000000000600052603260045260246000fd5b600060608201905061233860008301866116b7565b61234560208301856111db565b61235260408301846111db565b949350505050565b60006123658261112f565b91506123708361112f565b925082820190508082111561238857612387612105565b5b9291505056fea264697066735822122028c623de3b3ffae250475a68e5e3fb96404b82d0ab8c52d932af6b6df2198eac64736f6c63430008140033",
    "linkReferences": {},
    "deployedLinkReferences": {}
}