{
    "_format": "hh-sol-artifact-1",
    "contractName": "DemoContract",
    "sourceName": "contracts/DemoContract.sol",
    "abi": [
        {
            "inputs": [],
            "stateMutability": "nonpayable",
            "type": "constructor"
        },
        {
            "inputs": [
                {
                    "internalType": "address",
                    "name": "spender",
                    "type": "address"
                },
                {
                    "internalType": "uint256",
                    "name": "allowance",
                    "type": "uint256"
                },
                {
                    "internalType": "uint256",
                    "name": "needed",
                    "type": "uint256"
                }
            ],
            "name": "ERC20InsufficientAllowance",
            "type": "error"
        },
        {
            "inputs": [
                {
                    "internalType": "address",
                    "name": "sender",
                    "type": "address"
                },
                {
                    "internalType": "uint256",
                    "name": "balance",
                    "type": "uint256"
                },
                {
                    "internalType": "uint256",
                    "name": "needed",
                    "type": "uint256"
                }
            ],
            "name": "ERC20InsufficientBalance",
            "type": "error"
        },
        {
            "inputs": [
                {
                    "internalType": "address",
                    "name": "approver",
                    "type": "address"
                }
            ],
            "name": "ERC20InvalidApprover",
            "type": "error"
        },
        {
            "inputs": [
                {
                    "internalType": "address",
                    "name": "receiver",
                    "type": "address"
                }
            ],
            "name": "ERC20InvalidReceiver",
            "type": "error"
        },
        {
            "inputs": [
                {
                    "internalType": "address",
                    "name": "sender",
                    "type": "address"
                }
            ],
            "name": "ERC20InvalidSender",
            "type": "error"
        },
        {
            "inputs": [
                {
                    "internalType": "address",
                    "name": "spender",
                    "type": "address"
                }
            ],
            "name": "ERC20InvalidSpender",
            "type": "error"
        },
        {
            "inputs": [
                {
                    "internalType": "address",
                    "name": "owner",
                    "type": "address"
                }
            ],
            "name": "OwnableInvalidOwner",
            "type": "error"
        },
        {
            "inputs": [
                {
                    "internalType": "address",
                    "name": "account",
                    "type": "address"
                }
            ],
            "name": "OwnableUnauthorizedAccount",
            "type": "error"
        },
        {
            "anonymous": false,
            "inputs": [
                {
                    "indexed": true,
                    "internalType": "address",
                    "name": "owner",
                    "type": "address"
                },
                {
                    "indexed": true,
                    "internalType": "address",
                    "name": "spender",
                    "type": "address"
                },
                {
                    "indexed": false,
                    "internalType": "uint256",
                    "name": "value",
                    "type": "uint256"
                }
            ],
            "name": "Approval",
            "type": "event"
        },
        {
            "anonymous": false,
            "inputs": [
                {
                    "indexed": true,
                    "internalType": "address",
                    "name": "previousOwner",
                    "type": "address"
                },
                {
                    "indexed": true,
                    "internalType": "address",
                    "name": "newOwner",
                    "type": "address"
                }
            ],
            "name": "OwnershipTransferred",
            "type": "event"
        },
        {
            "anonymous": false,
            "inputs": [
                {
                    "indexed": true,
                    "internalType": "address",
                    "name": "from",
                    "type": "address"
                },
                {
                    "indexed": true,
                    "internalType": "address",
                    "name": "to",
                    "type": "address"
                },
                {
                    "indexed": false,
                    "internalType": "uint256",
                    "name": "value",
                    "type": "uint256"
                }
            ],
            "name": "Transfer",
            "type": "event"
        },
        {
            "inputs": [
                {
                    "internalType": "address",
                    "name": "owner",
                    "type": "address"
                },
                {
                    "internalType": "address",
                    "name": "spender",
                    "type": "address"
                }
            ],
            "name": "allowance",
            "outputs": [
                {
                    "internalType": "uint256",
                    "name": "",
                    "type": "uint256"
                }
            ],
            "stateMutability": "view",
            "type": "function"
        },
        {
            "inputs": [
                {
                    "internalType": "address",
                    "name": "spender",
                    "type": "address"
                },
                {
                    "internalType": "uint256",
                    "name": "value",
                    "type": "uint256"
                }
            ],
            "name": "approve",
            "outputs": [
                {
                    "internalType": "bool",
                    "name": "",
                    "type": "bool"
                }
            ],
            "stateMutability": "nonpayable",
            "type": "function"
        },
        {
            "inputs": [
                {
                    "internalType": "address",
                    "name": "account",
                    "type": "address"
                }
            ],
            "name": "balanceOf",
            "outputs": [
                {
                    "internalType": "uint256",
                    "name": "",
                    "type": "uint256"
                }
            ],
            "stateMutability": "view",
            "type": "function"
        },
        {
            "inputs": [],
            "name": "decimals",
            "outputs": [
                {
                    "internalType": "uint8",
                    "name": "",
                    "type": "uint8"
                }
            ],
            "stateMutability": "view",
            "type": "function"
        },
        {
            "inputs": [
                {
                    "internalType": "address",
                    "name": "_to",
                    "type": "address"
                },
                {
                    "internalType": "uint256",
                    "name": "_amount",
                    "type": "uint256"
                }
            ],
            "name": "mint",
            "outputs": [],
            "stateMutability": "nonpayable",
            "type": "function"
        },
        {
            "inputs": [],
            "name": "name",
            "outputs": [
                {
                    "internalType": "string",
                    "name": "",
                    "type": "string"
                }
            ],
            "stateMutability": "view",
            "type": "function"
        },
        {
            "inputs": [],
            "name": "owner",
            "outputs": [
                {
                    "internalType": "address",
                    "name": "",
                    "type": "address"
                }
            ],
            "stateMutability": "view",
            "type": "function"
        },
        {
            "inputs": [
                {
                    "internalType": "address",
                    "name": "_address",
                    "type": "address"
                },
                {
                    "internalType": "address[]",
                    "name": "_addressArray",
                    "type": "address[]"
                }
            ],
            "name": "processAddresses",
            "outputs": [],
            "stateMutability": "nonpayable",
            "type": "function"
        },
        {
            "inputs": [
                {
                    "internalType": "bool[]",
                    "name": "_boolArray",
                    "type": "bool[]"
                },
                {
                    "internalType": "uint256[]",
                    "name": "_uintArray",
                    "type": "uint256[]"
                },
                {
                    "internalType": "int256[]",
                    "name": "_intArray",
                    "type": "int256[]"
                }
            ],
            "name": "processArrayTypesOne",
            "outputs": [],
            "stateMutability": "nonpayable",
            "type": "function"
        },
        {
            "inputs": [
                {
                    "internalType": "string[]",
                    "name": "_stringArray",
                    "type": "string[]"
                },
                {
                    "internalType": "int256[]",
                    "name": "_intParam",
                    "type": "int256[]"
                },
                {
                    "internalType": "int8[]",
                    "name": "_int8Param",
                    "type": "int8[]"
                },
                {
                    "internalType": "uint8[]",
                    "name": "_uint8Param",
                    "type": "uint8[]"
                }
            ],
            "name": "processArrayTypesTwo",
            "outputs": [],
            "stateMutability": "nonpayable",
            "type": "function"
        },
        {
            "inputs": [
                {
                    "internalType": "bytes",
                    "name": "_bytes",
                    "type": "bytes"
                },
                {
                    "internalType": "bytes[]",
                    "name": "_bytesArray",
                    "type": "bytes[]"
                },
                {
                    "internalType": "bytes32",
                    "name": "_bytes32",
                    "type": "bytes32"
                }
            ],
            "name": "processBytes",
            "outputs": [],
            "stateMutability": "nonpayable",
            "type": "function"
        },
        {
            "inputs": [
                {
                    "internalType": "enum DemoContract.MyEnum",
                    "name": "_enumParam",
                    "type": "uint8"
                }
            ],
            "name": "processEnums",
            "outputs": [],
            "stateMutability": "nonpayable",
            "type": "function"
        },
        {
            "inputs": [
                {
                    "internalType": "bool",
                    "name": "_bool",
                    "type": "bool"
                },
                {
                    "internalType": "int256",
                    "name": "_int",
                    "type": "int256"
                },
                {
                    "internalType": "string",
                    "name": "_string",
                    "type": "string"
                },
                {
                    "internalType": "int256",
                    "name": "_intParam",
                    "type": "int256"
                },
                {
                    "internalType": "int8",
                    "name": "_int8Param",
                    "type": "int8"
                }
            ],
            "name": "processTypes",
            "outputs": [],
            "stateMutability": "nonpayable",
            "type": "function"
        },
        {
            "inputs": [
                {
                    "internalType": "uint256",
                    "name": "_uint",
                    "type": "uint256"
                },
                {
                    "internalType": "uint8",
                    "name": "_uint8Param",
                    "type": "uint8"
                }
            ],
            "name": "processUint",
            "outputs": [],
            "stateMutability": "nonpayable",
            "type": "function"
        },
        {
            "inputs": [],
            "name": "renounceOwnership",
            "outputs": [],
            "stateMutability": "nonpayable",
            "type": "function"
        },
        {
            "inputs": [],
            "name": "symbol",
            "outputs": [
                {
                    "internalType": "string",
                    "name": "",
                    "type": "string"
                }
            ],
            "stateMutability": "view",
            "type": "function"
        },
        {
            "inputs": [],
            "name": "totalSupply",
            "outputs": [
                {
                    "internalType": "uint256",
                    "name": "",
                    "type": "uint256"
                }
            ],
            "stateMutability": "view",
            "type": "function"
        },
        {
            "inputs": [
                {
                    "internalType": "address",
                    "name": "to",
                    "type": "address"
                },
                {
                    "internalType": "uint256",
                    "name": "value",
                    "type": "uint256"
                }
            ],
            "name": "transfer",
            "outputs": [
                {
                    "internalType": "bool",
                    "name": "",
                    "type": "bool"
                }
            ],
            "stateMutability": "nonpayable",
            "type": "function"
        },
        {
            "inputs": [
                {
                    "internalType": "address",
                    "name": "from",
                    "type": "address"
                },
                {
                    "internalType": "address",
                    "name": "to",
                    "type": "address"
                },
                {
                    "internalType": "uint256",
                    "name": "value",
                    "type": "uint256"
                }
            ],
            "name": "transferFrom",
            "outputs": [
                {
                    "internalType": "bool",
                    "name": "",
                    "type": "bool"
                }
            ],
            "stateMutability": "nonpayable",
            "type": "function"
        },
        {
            "inputs": [
                {
                    "internalType": "address",
                    "name": "newOwner",
                    "type": "address"
                }
            ],
            "name": "transferOwnership",
            "outputs": [],
            "stateMutability": "nonpayable",
            "type": "function"
        }
    ],
    "bytecode": "0x60806040523480156200001157600080fd5b50326040518060400160405280600c81526020017f44656d6f436f6e747261637400000000000000000000000000000000000000008152506040518060400160405280600481526020017f44454d4f00000000000000000000000000000000000000000000000000000000815250816003908162000090919062000776565b508060049081620000a2919062000776565b505050600073ffffffffffffffffffffffffffffffffffffffff168173ffffffffffffffffffffffffffffffffffffffff16036200011a5760006040517f1e4fbdf7000000000000000000000000000000000000000000000000000000008152600401620001119190620008a2565b60405180910390fd5b6200012b816200017060201b60201c565b506200016a33620001416200023660201b60201c565b600a6200014f919062000a4f565b6107d06200015e919062000aa0565b6200023f60201b60201c565b62000b91565b6000600560009054906101000a900473ffffffffffffffffffffffffffffffffffffffff16905081600560006101000a81548173ffffffffffffffffffffffffffffffffffffffff021916908373ffffffffffffffffffffffffffffffffffffffff1602179055508173ffffffffffffffffffffffffffffffffffffffff168173ffffffffffffffffffffffffffffffffffffffff167f8be0079c531659141344cd1fd0a4f28419497f9722a3daafe3b4186f6b6457e060405160405180910390a35050565b60006012905090565b600073ffffffffffffffffffffffffffffffffffffffff168273ffffffffffffffffffffffffffffffffffffffff1603620002b45760006040517fec442f05000000000000000000000000000000000000000000000000000000008152600401620002ab9190620008a2565b60405180910390fd5b620002c860008383620002cc60201b60201c565b5050565b600073ffffffffffffffffffffffffffffffffffffffff168373ffffffffffffffffffffffffffffffffffffffff16036200032257806002600082825462000315919062000aeb565b92505081905550620003f8565b60008060008573ffffffffffffffffffffffffffffffffffffffff1673ffffffffffffffffffffffffffffffffffffffff16815260200190815260200160002054905081811015620003b1578381836040517fe450d38c000000000000000000000000000000000000000000000000000000008152600401620003a89392919062000b37565b60405180910390fd5b8181036000808673ffffffffffffffffffffffffffffffffffffffff1673ffffffffffffffffffffffffffffffffffffffff16815260200190815260200160002081905550505b600073ffffffffffffffffffffffffffffffffffffffff168273ffffffffffffffffffffffffffffffffffffffff160362000443578060026000828254039250508190555062000490565b806000808473ffffffffffffffffffffffffffffffffffffffff1673ffffffffffffffffffffffffffffffffffffffff168152602001908152602001600020600082825401925050819055505b8173ffffffffffffffffffffffffffffffffffffffff168373ffffffffffffffffffffffffffffffffffffffff167fddf252ad1be2c89b69c2b068fc378daa952ba7f163c4a11628f55a4df523b3ef83604051620004ef919062000b74565b60405180910390a3505050565b600081519050919050565b7f4e487b7100000000000000000000000000000000000000000000000000000000600052604160045260246000fd5b7f4e487b7100000000000000000000000000000000000000000000000000000000600052602260045260246000fd5b600060028204905060018216806200057e57607f821691505b60208210810362000594576200059362000536565b5b50919050565b60008190508160005260206000209050919050565b60006020601f8301049050919050565b600082821b905092915050565b600060088302620005fe7fffffffffffffffffffffffffffffffffffffffffffffffffffffffffffffffff82620005bf565b6200060a8683620005bf565b95508019841693508086168417925050509392505050565b6000819050919050565b6000819050919050565b600062000657620006516200064b8462000622565b6200062c565b62000622565b9050919050565b6000819050919050565b620006738362000636565b6200068b62000682826200065e565b848454620005cc565b825550505050565b600090565b620006a262000693565b620006af81848462000668565b505050565b5b81811015620006d757620006cb60008262000698565b600181019050620006b5565b5050565b601f8211156200072657620006f0816200059a565b620006fb84620005af565b810160208510156200070b578190505b620007236200071a85620005af565b830182620006b4565b50505b505050565b600082821c905092915050565b60006200074b600019846008026200072b565b1980831691505092915050565b600062000766838362000738565b9150826002028217905092915050565b6200078182620004fc565b67ffffffffffffffff8111156200079d576200079c62000507565b5b620007a9825462000565565b620007b6828285620006db565b600060209050601f831160018114620007ee5760008415620007d9578287015190505b620007e5858262000758565b86555062000855565b601f198416620007fe866200059a565b60005b82811015620008285784890151825560018201915060208501945060208101905062000801565b8683101562000848578489015162000844601f89168262000738565b8355505b6001600288020188555050505b505050505050565b600073ffffffffffffffffffffffffffffffffffffffff82169050919050565b60006200088a826200085d565b9050919050565b6200089c816200087d565b82525050565b6000602082019050620008b9600083018462000891565b92915050565b7f4e487b7100000000000000000000000000000000000000000000000000000000600052601160045260246000fd5b60008160011c9050919050565b6000808291508390505b60018511156200094d57808604811115620009255762000924620008bf565b5b6001851615620009355780820291505b80810290506200094585620008ee565b945062000905565b94509492505050565b60008262000968576001905062000a3b565b8162000978576000905062000a3b565b81600181146200099157600281146200099c57620009d2565b600191505062000a3b565b60ff841115620009b157620009b0620008bf565b5b8360020a915084821115620009cb57620009ca620008bf565b5b5062000a3b565b5060208310610133831016604e8410600b841016171562000a0c5782820a90508381111562000a065762000a05620008bf565b5b62000a3b565b62000a1b8484846001620008fb565b9250905081840481111562000a355762000a34620008bf565b5b81810290505b9392505050565b600060ff82169050919050565b600062000a5c8262000622565b915062000a698362000a42565b925062000a987fffffffffffffffffffffffffffffffffffffffffffffffffffffffffffffffff848462000956565b905092915050565b600062000aad8262000622565b915062000aba8362000622565b925082820262000aca8162000622565b9150828204841483151762000ae45762000ae3620008bf565b5b5092915050565b600062000af88262000622565b915062000b058362000622565b925082820190508082111562000b205762000b1f620008bf565b5b92915050565b62000b318162000622565b82525050565b600060608201905062000b4e600083018662000891565b62000b5d602083018562000b26565b62000b6c604083018462000b26565b949350505050565b600060208201905062000b8b600083018462000b26565b92915050565b61217c8062000ba16000396000f3fe608060405234801561001057600080fd5b506004361061012c5760003560e01c80638da5cb5b116100ad578063c1b129e711610071578063c1b129e71461031d578063ce50c92114610339578063dd62ed3e14610355578063f2fde38b14610385578063f8569c25146103a15761012c565b80638da5cb5b146102795780638f09b3491461029757806395d89b41146102b35780639fdbcfc9146102d1578063a9059cbb146102ed5761012c565b806340c10f19116100f457806340c10f19146101eb578063652bf4531461020757806370a0823114610223578063715018a6146102535780637f6e2d621461025d5761012c565b806306fdde0314610131578063095ea7b31461014f57806318160ddd1461017f57806323b872dd1461019d578063313ce567146101cd575b600080fd5b6101396103bd565b6040516101469190610f47565b60405180910390f35b61016960048036038101906101649190611011565b61044f565b604051610176919061106c565b60405180910390f35b610187610472565b6040516101949190611096565b60405180910390f35b6101b760048036038101906101b291906110b1565b61047c565b6040516101c4919061106c565b60405180910390f35b6101d56104ab565b6040516101e29190611120565b60405180910390f35b61020560048036038101906102009190611011565b6104b4565b005b610221600480360381019061021c919061138c565b6104e0565b005b61023d60048036038101906102389190611417565b6104e5565b60405161024a9190611096565b60405180910390f35b61025b61052d565b005b61027760048036038101906102729190611507565b610541565b005b610281610545565b60405161028e9190611572565b60405180910390f35b6102b160048036038101906102ac9190611838565b61056f565b005b6102bb610574565b6040516102c89190610f47565b60405180910390f35b6102eb60048036038101906102e69190611904565b610606565b005b61030760048036038101906103029190611011565b610609565b604051610314919061106c565b60405180910390f35b61033760048036038101906103329190611c9e565b61062c565b005b610353600480360381019061034e9190611d75565b610632565b005b61036f600480360381019061036a9190611db5565b610636565b60405161037c9190611096565b60405180910390f35b61039f600480360381019061039a9190611417565b6106bd565b005b6103bb60048036038101906103b69190611df5565b610743565b005b6060600380546103cc90611ebb565b80601f01602080910402602001604051908101604052809291908181526020018280546103f890611ebb565b80156104455780601f1061041a57610100808354040283529160200191610445565b820191906000526020600020905b81548152906001019060200180831161042857829003601f168201915b5050505050905090565b60008061045a61074a565b9050610467818585610752565b600191505092915050565b6000600254905090565b60008061048761074a565b9050610494858285610764565b61049f8585856107f8565b60019150509392505050565b60006012905090565b6104dc826104c06104ab565b600a6104cc919061204e565b836104d79190612099565b6108ec565b5050565b505050565b60008060008373ffffffffffffffffffffffffffffffffffffffff1673ffffffffffffffffffffffffffffffffffffffff168152602001908152602001600020549050919050565b61053561096e565b61053f60006109f5565b565b5050565b6000600560009054906101000a900473ffffffffffffffffffffffffffffffffffffffff16905090565b505050565b60606004805461058390611ebb565b80601f01602080910402602001604051908101604052809291908181526020018280546105af90611ebb565b80156105fc5780601f106105d1576101008083540402835291602001916105fc565b820191906000526020600020905b8154815290600101906020018083116105df57829003601f168201915b5050505050905090565b50565b60008061061461074a565b90506106218185856107f8565b600191505092915050565b50505050565b5050565b6000600160008473ffffffffffffffffffffffffffffffffffffffff1673ffffffffffffffffffffffffffffffffffffffff16815260200190815260200160002060008373ffffffffffffffffffffffffffffffffffffffff1673ffffffffffffffffffffffffffffffffffffffff16815260200190815260200160002054905092915050565b6106c561096e565b600073ffffffffffffffffffffffffffffffffffffffff168173ffffffffffffffffffffffffffffffffffffffff16036107375760006040517f1e4fbdf700000000000000000000000000000000000000000000000000000000815260040161072e9190611572565b60405180910390fd5b610740816109f5565b50565b5050505050565b600033905090565b61075f8383836001610abb565b505050565b60006107708484610636565b90507fffffffffffffffffffffffffffffffffffffffffffffffffffffffffffffffff81146107f257818110156107e2578281836040517ffb8f41b20000000000000000000000000000000000000000000000000000000081526004016107d9939291906120db565b60405180910390fd5b6107f184848484036000610abb565b5b50505050565b600073ffffffffffffffffffffffffffffffffffffffff168373ffffffffffffffffffffffffffffffffffffffff160361086a5760006040517f96c6fd1e0000000000000000000000000000000000000000000000000000000081526004016108619190611572565b60405180910390fd5b600073ffffffffffffffffffffffffffffffffffffffff168273ffffffffffffffffffffffffffffffffffffffff16036108dc5760006040517fec442f050000000000000000000000000000000000000000000000000000000081526004016108d39190611572565b60405180910390fd5b6108e7838383610c92565b505050565b600073ffffffffffffffffffffffffffffffffffffffff168273ffffffffffffffffffffffffffffffffffffffff160361095e5760006040517fec442f050000000000000000000000000000000000000000000000000000000081526004016109559190611572565b60405180910390fd5b61096a60008383610c92565b5050565b61097661074a565b73ffffffffffffffffffffffffffffffffffffffff16610994610545565b73ffffffffffffffffffffffffffffffffffffffff16146109f3576109b761074a565b6040517f118cdaa70000000000000000000000000000000000000000000000000000000081526004016109ea9190611572565b60405180910390fd5b565b6000600560009054906101000a900473ffffffffffffffffffffffffffffffffffffffff16905081600560006101000a81548173ffffffffffffffffffffffffffffffffffffffff021916908373ffffffffffffffffffffffffffffffffffffffff1602179055508173ffffffffffffffffffffffffffffffffffffffff168173ffffffffffffffffffffffffffffffffffffffff167f8be0079c531659141344cd1fd0a4f28419497f9722a3daafe3b4186f6b6457e060405160405180910390a35050565b600073ffffffffffffffffffffffffffffffffffffffff168473ffffffffffffffffffffffffffffffffffffffff1603610b2d5760006040517fe602df05000000000000000000000000000000000000000000000000000000008152600401610b249190611572565b60405180910390fd5b600073ffffffffffffffffffffffffffffffffffffffff168373ffffffffffffffffffffffffffffffffffffffff1603610b9f5760006040517f94280d62000000000000000000000000000000000000000000000000000000008152600401610b969190611572565b60405180910390fd5b81600160008673ffffffffffffffffffffffffffffffffffffffff1673ffffffffffffffffffffffffffffffffffffffff16815260200190815260200160002060008573ffffffffffffffffffffffffffffffffffffffff1673ffffffffffffffffffffffffffffffffffffffff168152602001908152602001600020819055508015610c8c578273ffffffffffffffffffffffffffffffffffffffff168473ffffffffffffffffffffffffffffffffffffffff167f8c5be1e5ebec7d5bd14f71427d1e84f3dd0314c0f7b2291e5b200ac8c7c3b92584604051610c839190611096565b60405180910390a35b50505050565b600073ffffffffffffffffffffffffffffffffffffffff168373ffffffffffffffffffffffffffffffffffffffff1603610ce4578060026000828254610cd89190612112565b92505081905550610db7565b60008060008573ffffffffffffffffffffffffffffffffffffffff1673ffffffffffffffffffffffffffffffffffffffff16815260200190815260200160002054905081811015610d70578381836040517fe450d38c000000000000000000000000000000000000000000000000000000008152600401610d67939291906120db565b60405180910390fd5b8181036000808673ffffffffffffffffffffffffffffffffffffffff1673ffffffffffffffffffffffffffffffffffffffff16815260200190815260200160002081905550505b600073ffffffffffffffffffffffffffffffffffffffff168273ffffffffffffffffffffffffffffffffffffffff1603610e005780600260008282540392505081905550610e4d565b806000808473ffffffffffffffffffffffffffffffffffffffff1673ffffffffffffffffffffffffffffffffffffffff168152602001908152602001600020600082825401925050819055505b8173ffffffffffffffffffffffffffffffffffffffff168373ffffffffffffffffffffffffffffffffffffffff167fddf252ad1be2c89b69c2b068fc378daa952ba7f163c4a11628f55a4df523b3ef83604051610eaa9190611096565b60405180910390a3505050565b600081519050919050565b600082825260208201905092915050565b60005b83811015610ef1578082015181840152602081019050610ed6565b60008484015250505050565b6000601f19601f8301169050919050565b6000610f1982610eb7565b610f238185610ec2565b9350610f33818560208601610ed3565b610f3c81610efd565b840191505092915050565b60006020820190508181036000830152610f618184610f0e565b905092915050565b6000604051905090565b600080fd5b600080fd5b600073ffffffffffffffffffffffffffffffffffffffff82169050919050565b6000610fa882610f7d565b9050919050565b610fb881610f9d565b8114610fc357600080fd5b50565b600081359050610fd581610faf565b92915050565b6000819050919050565b610fee81610fdb565b8114610ff957600080fd5b50565b60008135905061100b81610fe5565b92915050565b6000806040838503121561102857611027610f73565b5b600061103685828601610fc6565b925050602061104785828601610ffc565b9150509250929050565b60008115159050919050565b61106681611051565b82525050565b6000602082019050611081600083018461105d565b92915050565b61109081610fdb565b82525050565b60006020820190506110ab6000830184611087565b92915050565b6000806000606084860312156110ca576110c9610f73565b5b60006110d886828701610fc6565b93505060206110e986828701610fc6565b92505060406110fa86828701610ffc565b9150509250925092565b600060ff82169050919050565b61111a81611104565b82525050565b60006020820190506111356000830184611111565b92915050565b600080fd5b600080fd5b7f4e487b7100000000000000000000000000000000000000000000000000000000600052604160045260246000fd5b61117d82610efd565b810181811067ffffffffffffffff8211171561119c5761119b611145565b5b80604052505050565b60006111af610f69565b90506111bb8282611174565b919050565b600067ffffffffffffffff8211156111db576111da611145565b5b6111e482610efd565b9050602081019050919050565b82818337600083830152505050565b600061121361120e846111c0565b6111a5565b90508281526020810184848401111561122f5761122e611140565b5b61123a8482856111f1565b509392505050565b600082601f8301126112575761125661113b565b5b8135611267848260208601611200565b91505092915050565b600067ffffffffffffffff82111561128b5761128a611145565b5b602082029050602081019050919050565b600080fd5b60006112b46112af84611270565b6111a5565b905080838252602082019050602084028301858111156112d7576112d661129c565b5b835b8181101561131e57803567ffffffffffffffff8111156112fc576112fb61113b565b5b8086016113098982611242565b855260208501945050506020810190506112d9565b5050509392505050565b600082601f83011261133d5761133c61113b565b5b813561134d8482602086016112a1565b91505092915050565b6000819050919050565b61136981611356565b811461137457600080fd5b50565b60008135905061138681611360565b92915050565b6000806000606084860312156113a5576113a4610f73565b5b600084013567ffffffffffffffff8111156113c3576113c2610f78565b5b6113cf86828701611242565b935050602084013567ffffffffffffffff8111156113f0576113ef610f78565b5b6113fc86828701611328565b925050604061140d86828701611377565b9150509250925092565b60006020828403121561142d5761142c610f73565b5b600061143b84828501610fc6565b91505092915050565b600067ffffffffffffffff82111561145f5761145e611145565b5b602082029050602081019050919050565b600061148361147e84611444565b6111a5565b905080838252602082019050602084028301858111156114a6576114a561129c565b5b835b818110156114cf57806114bb8882610fc6565b8452602084019350506020810190506114a8565b5050509392505050565b600082601f8301126114ee576114ed61113b565b5b81356114fe848260208601611470565b91505092915050565b6000806040838503121561151e5761151d610f73565b5b600061152c85828601610fc6565b925050602083013567ffffffffffffffff81111561154d5761154c610f78565b5b611559858286016114d9565b9150509250929050565b61156c81610f9d565b82525050565b60006020820190506115876000830184611563565b92915050565b600067ffffffffffffffff8211156115a8576115a7611145565b5b602082029050602081019050919050565b6115c281611051565b81146115cd57600080fd5b50565b6000813590506115df816115b9565b92915050565b60006115f86115f38461158d565b6111a5565b9050808382526020820190506020840283018581111561161b5761161a61129c565b5b835b81811015611644578061163088826115d0565b84526020840193505060208101905061161d565b5050509392505050565b600082601f8301126116635761166261113b565b5b81356116738482602086016115e5565b91505092915050565b600067ffffffffffffffff82111561169757611696611145565b5b602082029050602081019050919050565b60006116bb6116b68461167c565b6111a5565b905080838252602082019050602084028301858111156116de576116dd61129c565b5b835b8181101561170757806116f38882610ffc565b8452602084019350506020810190506116e0565b5050509392505050565b600082601f8301126117265761172561113b565b5b81356117368482602086016116a8565b91505092915050565b600067ffffffffffffffff82111561175a57611759611145565b5b602082029050602081019050919050565b6000819050919050565b61177e8161176b565b811461178957600080fd5b50565b60008135905061179b81611775565b92915050565b60006117b46117af8461173f565b6111a5565b905080838252602082019050602084028301858111156117d7576117d661129c565b5b835b8181101561180057806117ec888261178c565b8452602084019350506020810190506117d9565b5050509392505050565b600082601f83011261181f5761181e61113b565b5b813561182f8482602086016117a1565b91505092915050565b60008060006060848603121561185157611850610f73565b5b600084013567ffffffffffffffff81111561186f5761186e610f78565b5b61187b8682870161164e565b935050602084013567ffffffffffffffff81111561189c5761189b610f78565b5b6118a886828701611711565b925050604084013567ffffffffffffffff8111156118c9576118c8610f78565b5b6118d58682870161180a565b9150509250925092565b600381106118ec57600080fd5b50565b6000813590506118fe816118df565b92915050565b60006020828403121561191a57611919610f73565b5b6000611928848285016118ef565b91505092915050565b600067ffffffffffffffff82111561194c5761194b611145565b5b602082029050602081019050919050565b600067ffffffffffffffff82111561197857611977611145565b5b61198182610efd565b9050602081019050919050565b60006119a161199c8461195d565b6111a5565b9050828152602081018484840111156119bd576119bc611140565b5b6119c88482856111f1565b509392505050565b600082601f8301126119e5576119e461113b565b5b81356119f584826020860161198e565b91505092915050565b6000611a11611a0c84611931565b6111a5565b90508083825260208201905060208402830185811115611a3457611a3361129c565b5b835b81811015611a7b57803567ffffffffffffffff811115611a5957611a5861113b565b5b808601611a6689826119d0565b85526020850194505050602081019050611a36565b5050509392505050565b600082601f830112611a9a57611a9961113b565b5b8135611aaa8482602086016119fe565b91505092915050565b600067ffffffffffffffff821115611ace57611acd611145565b5b602082029050602081019050919050565b60008160000b9050919050565b611af581611adf565b8114611b0057600080fd5b50565b600081359050611b1281611aec565b92915050565b6000611b2b611b2684611ab3565b6111a5565b90508083825260208201905060208402830185811115611b4e57611b4d61129c565b5b835b81811015611b775780611b638882611b03565b845260208401935050602081019050611b50565b5050509392505050565b600082601f830112611b9657611b9561113b565b5b8135611ba6848260208601611b18565b91505092915050565b600067ffffffffffffffff821115611bca57611bc9611145565b5b602082029050602081019050919050565b611be481611104565b8114611bef57600080fd5b50565b600081359050611c0181611bdb565b92915050565b6000611c1a611c1584611baf565b6111a5565b90508083825260208201905060208402830185811115611c3d57611c3c61129c565b5b835b81811015611c665780611c528882611bf2565b845260208401935050602081019050611c3f565b5050509392505050565b600082601f830112611c8557611c8461113b565b5b8135611c95848260208601611c07565b91505092915050565b60008060008060808587031215611cb857611cb7610f73565b5b600085013567ffffffffffffffff811115611cd657611cd5610f78565b5b611ce287828801611a85565b945050602085013567ffffffffffffffff811115611d0357611d02610f78565b5b611d0f8782880161180a565b935050604085013567ffffffffffffffff811115611d3057611d2f610f78565b5b611d3c87828801611b81565b925050606085013567ffffffffffffffff811115611d5d57611d5c610f78565b5b611d6987828801611c70565b91505092959194509250565b60008060408385031215611d8c57611d8b610f73565b5b6000611d9a85828601610ffc565b9250506020611dab85828601611bf2565b9150509250929050565b60008060408385031215611dcc57611dcb610f73565b5b6000611dda85828601610fc6565b9250506020611deb85828601610fc6565b9150509250929050565b600080600080600060a08688031215611e1157611e10610f73565b5b6000611e1f888289016115d0565b9550506020611e308882890161178c565b945050604086013567ffffffffffffffff811115611e5157611e50610f78565b5b611e5d888289016119d0565b9350506060611e6e8882890161178c565b9250506080611e7f88828901611b03565b9150509295509295909350565b7f4e487b7100000000000000000000000000000000000000000000000000000000600052602260045260246000fd5b60006002820490506001821680611ed357607f821691505b602082108103611ee657611ee5611e8c565b5b50919050565b7f4e487b7100000000000000000000000000000000000000000000000000000000600052601160045260246000fd5b60008160011c9050919050565b6000808291508390505b6001851115611f7257808604811115611f4e57611f4d611eec565b5b6001851615611f5d5780820291505b8081029050611f6b85611f1b565b9450611f32565b94509492505050565b600082611f8b5760019050612047565b81611f995760009050612047565b8160018114611faf5760028114611fb957611fe8565b6001915050612047565b60ff841115611fcb57611fca611eec565b5b8360020a915084821115611fe257611fe1611eec565b5b50612047565b5060208310610133831016604e8410600b841016171561201d5782820a90508381111561201857612017611eec565b5b612047565b61202a8484846001611f28565b9250905081840481111561204157612040611eec565b5b81810290505b9392505050565b600061205982610fdb565b915061206483611104565b92506120917fffffffffffffffffffffffffffffffffffffffffffffffffffffffffffffffff8484611f7b565b905092915050565b60006120a482610fdb565b91506120af83610fdb565b92508282026120bd81610fdb565b915082820484148315176120d4576120d3611eec565b5b5092915050565b60006060820190506120f06000830186611563565b6120fd6020830185611087565b61210a6040830184611087565b949350505050565b600061211d82610fdb565b915061212883610fdb565b92508282019050808211156121405761213f611eec565b5b9291505056fea2646970667358221220a21826f6b9401e6bd18ce243277db6fabf49f4bad3fa17abf8755890232f035664736f6c63430008140033",
    "linkReferences": {},
    "deployedLinkReferences": {}
}